:020000040800F2
:1000000000000220B9020008BF020008C302000875
:1000100035030008390300088103000800000000D0
:10002000000000000000000000000000C9030008FC
:10003000CD03000800000000D1030008751200087D
:10004000E5030008E5030008E5030008E5030008F0
:10005000E5030008E503000849110008E50300086E
:10006000E5030008E5030008E5030008E5030008D0
:10007000E5030008E5030008E5030008E5030008C0
:10008000E5030008E503000829110008E50300085E
:10009000E5030008E5030008E5030008E5030008A0
:1000A000E5030008E5030008E5030008E503000890
:1000B000E5030008E5030008E5030008E503000880
:1000C000E5030008E5030008E5030008E503000870
:1000D000E5030008E5030008E5030008E503000860
:1000E000E5030008E5030008E5030008E503000850
:1000F000E5030008E5030008E5030008E503000840
:10010000E5030008E5030008E5030008E50300082F
:10011000E5030008E5030008E5030008E50300081F
:10012000E5030008E5030008E5030008E50300080F
:10013000E5030008E5030008E5030008E5030008FF
:10014000E5030008E5030008E5030008E5030008EF
:10015000E5030008E5030008E5030008E5030008DF
:10016000E5030008E5030008E5030008E5030008CF
:10017000E5030008E5030008E503000800000000AF
:10018000E5030008E503000800B583B000F02EFF8A
:10019000384B394A1360394A1360394906E052F83E
:1001A000041B43F8041B9842F9D86146354B994229
:1001B00005D20A684B6801F10C0C8868F3E72E4BF6
:1001C0001A68314B9A4200D0FEE72C4B1A682F4B2D
:1001D0009A42F9D1274B2E4A13602E4A13602E4AB9
:1001E00000E002462D4B9A4209D2104650F8083BD7
:1001F00051689942F5D9002243F8042BF9E7244BC2
:100200001B6813B9234B1B6803B1FEE700F0FAFF2C
:10021000694601A800F008FE214C224BE41AA41004
:10022000002504E01F4B53F8253098470135AC42B8
:10023000F8DC1D4C1D4BE41AA410002504E01B4BF8
:1002400053F8253098470135AC42F8DC0099019805
:1002500000F0F0FF0546164C164BE41AA41004E01B
:10026000013C144B53F824309847002CF8DC284606
:1002700000F0B6FDBABADECA000000206800002017
:10028000E8030008000400087856341232547698C7
:100290006C0000201C01002000040008100400086D
:1002A00010040008100400081004000810040008DE
:1002B000100400081004000808B5FFF765FF00BE31
:1002C000FEE71EF0040F0CBFEFF30880EFF3098088
:1002D0007146414A10472DE9F04182B004460D466F
:1002E000124B5F6BD3F838809E6A1B6B13F0020FC2
:1002F00003D00E4BDB6A002B0BDB0D4800F0D2FD68
:10030000009543463A463146204600F0E5FD00BEE2
:10031000FEE74BF6AB6100F059FE0028EDD0034B31
:100320004FF00042DA6202B0BDE8F08100ED00E07B
:10033000B020000800BEFEE71EF0040F0CBFEFF374
:100340000880EFF309807146244A10472DE9F041F7
:1003500082B004460D46084B5F6BD3F838809E6A26
:10036000064800F09FFD009543463A463146204638
:1003700000F0B2FD00BEFEE700ED00E0C020000886
:100380001EF0040F0CBFEFF30880EFF309807146F5
:10039000134A10472DE9F04182B004460D46084B40
:1003A0005F6BD3F838809E6A064800F07BFD0095AD
:1003B00043463A463146204600F08EFD00BEFEE739
:1003C00000ED00E0CC20000800BEFEE700BEFEE726
:1003D00000BEFEE770470000D70200084D0300088A
:0803E0009503000800BEFEE7D2
:1003E800D0210008000000206C000020D021000867
:1003F80000000010000000106C0000202001002008
:080408000000001000000010CC
:1004100010B504460E4B1A784FF47A73B3FBF2F31F
:100420000C4A1068B0FBF3F000F0AEF868B90F2C7E
:1004300001D901200AE0002221464FF0FF3000F0F0
:100440007FF8054B1C60002000E0012010BD00BFBC
:1004500004000020140000200800002008B50B4B09
:100460001A6842F400721A601A6842F480621A60D4
:100470001A6842F480721A60032000F043F80F20DB
:10048000FFF7C6FF00F0F4FE002008BD003C02406C
:10049000014B1868704700BF70000020002808DB7F
:1004A0000901C9B200F1604000F5614080F8001315
:1004B000704700F00F000901C9B2014B1954704791
:1004C00014ED00E000B500F00700C0F1070CBCF12E
:1004D000040F28BF4FF0040C031D062B0FD9C31EB9
:1004E0004FF0FF3E0EFA0CF021EA000199400EFA9F
:1004F00003FE22EA0E0241EA02005DF804FB00233B
:10050000EEE7000010B50446C31E042B0FD80A4ABC
:10051000D36823F4E0631B041B0C240204F4E0649E
:10052000234343F0BF6343F40033D36010BD9221F3
:10053000024800F06FFEEAE700ED00E0301F00081F
:1005400070B506460C4615460F2A0ED80F2C11D84A
:100550000B4BD8682A462146C0F30220FFF7B2FFB2
:1005600001463046FFF79AFF70BDAA21054800F00A
:1005700051FEEBE7AB21034800F04CFEE8E700BF7B
:1005800000ED00E0301F00080138B0F1807F0BD291
:100590004FF0E0235861054AF02182F82310002033
:1005A000986107221A6170470120704700ED00E052
:1005B00008B5042807D068B94FF0E022136923F08A
:1005C0000403136108BD4FF0E022136943F00403F4
:1005D0001361F7E740F2C911014800F01BFEEBE799
:1005E000301F0008002800F0588270B582B0044621
:1005F00003680F2B39D8236813F0010F4DD06368BF
:100600002BB1B3F5803F02D0B3F5A02F32D1804B90
:100610009B6803F00C03042B36D07D4B9B6803F0E2
:100620000C03082B2BD06368B3F5803F5FD0B3F584
:10063000A02F62D0764B1A6822F480321A601A68B2
:1006400022F480221A606368002B60D0FFF720FF3D
:1006500005466F4B1B6813F4003F1ED1FFF718FFD0
:10066000401B6428F5D903201EE2E821694800F008
:10067000D1FDC0E7ED21674800F0CCFDC7E7644B32
:100680005B6813F4800FCED0614B1B6813F4003FFE
:1006900003D06368002B00F00282236813F0020F7E
:1006A00066D0E368012B41D823691F2B44D8584BEF
:1006B0009B6813F00C0F4AD0554B9B6803F00C035A
:1006C000082B3FD0E368002B77D0534B01221A60F0
:1006D000FFF7DEFE05464E4B1B6813F0020F63D199
:1006E000FFF7D6FE401B0228F5D90320DCE1484A7B
:1006F000136843F480331360A5E7454B1A6842F44E
:1007000080221A601A6842F480321A609BE7FFF771
:10071000BFFE05463E4B1B6813F4003FBDD0FFF7FC
:10072000B7FE401B6428F5D90320BDE140F21F113C
:10073000384800F06FFDB7E74FF49071354800F08E
:1007400069FDB4E7324B5B6813F4800FBAD1304BCC
:100750001B6813F0020F03D0E368012B40F0A18166
:100760002B4A136823F0F803216943EAC10313609D
:10077000236813F0080F51D06369012B2FD86369E8
:100780009BB3254B0122C3F8802EFFF781FE05465F
:100790001F4B5B6F13F0020F40D1FFF779FE401B38
:1007A0000228F5D903207FE1194A136823F0F803E2
:1007B000216943EAC1031360DAE7174B00221A608C
:1007C000FFF766FE0546124B1B6813F0020FCFD0F1
:1007D000FFF75EFE401B0228F5D9032064E14FF4C9
:1007E000B0710C4800F016FDC9E70B4B0022C3F8AE
:1007F000802EFFF74DFE0546054B5B6F13F0020F91
:100800000CD0FFF745FE401B0228F5D903204BE131
:1008100000380240641F000800004742236813F0BC
:10082000040F7CD0A368012B01D9052B38D1A44B30
:100830001B6C13F0805F39D100230193A04B1A6C1D
:1008400042F080521A641B6C03F080530193019BA9
:1008500001259C4B1B6813F4807F29D0A368012BD2
:100860003AD0052B3ED0964B1A6F22F001021A6740
:100870001A6F22F004021A67A368002B3CD0FFF71E
:1008800007FE06468E4B1B6F13F0020F45D1FFF794
:10089000FFFD801B41F288339842F3D9032003E126
:1008A0004FF4C671884800F0B5FCC0E70025D0E7DA
:1008B000844A136843F480731360FFF7E9FD06462A
:1008C000804B1B6813F4807FC8D1FFF7E1FD801BCC
:1008D0000228F5D90320E7E0794A136F43F00103BA
:1008E0001367C9E7764B1A6F42F004021A671A6F52
:1008F00042F001021A67BFE7FFF7CAFD0646704BD8
:100900001B6F13F0020F08D0FFF7C2FD801B41F2EE
:1009100088339842F3D90320C6E0002D3BD1A36968
:10092000022B3ED8A369002B00F0BD80644A926878
:1009300002F00C02082A00F09080022B79D1E369C2
:1009400013B1B3F5800F32D1236A3F2B35D8636AD8
:10095000323BB3F5BF7F36D8A26A082A39D84FF4A4
:10096000AA73D34013F0010F33D0E36A023B0D2B7F
:1009700035D8564B00221A66FFF78AFD0546504BC4
:100980001B6813F0007F30D0FFF782FD401B022868
:10099000F5D9032088E04A4A136C23F0805313648E
:1009A000BDE740F2CF11484800F034FCBAE74FF4FD
:1009B000EC71454800F02EFCC6E740F2D9114248E0
:1009C00000F028FCC3E74FF4ED713F4800F022FC33
:1009D000C2E740F2DB113C4800F01CFCC5E74FF4D5
:1009E000EE71394800F016FCC3E7E369226A13434D
:1009F000626A43EA8213A26A5208013A43EA024356
:100A0000E26A43EA02632E4A5360304B01221A66BF
:100A1000FFF73EFD04462A4B1B6813F0007F06D10A
:100A2000FFF736FD001B0228F5D903203CE000202B
:100A30003AE0264B00221A66FFF72AFD0446204BB7
:100A40001B6813F0007F06D0FFF722FD001B022871
:100A5000F5D9032028E0002026E0012B26D0184BF2
:100A60005B6803F48001E269914221D103F03F0207
:100A7000216A8A421ED1616A47F6C0721A408A42D0
:100A80001AD103F44032A16A8A4217D103F070638D
:100A9000E26A93421CD1002006E001207047012049
:100AA00002E0012000E0002002B070BD0120FBE761
:100AB0000120F9E70120F7E70120F5E70120F3E73E
:100AC0000038024000700040641F000800004742E8
:100AD0000120E9E708B5334B9B6803F00C03042BB6
:100AE0005BD0082B5BD12F4B5A6802F03F025B684A
:100AF00013F4800F2CD02B4B5868C0F388104FEAAA
:100B0000401CBCEB000C6EEB0E0E4FEA8E1343EA5A
:100B10009C634FEA8C11B1EB0C0163EB0E03DB001D
:100B200043EA5173C90011EB000C43F10003590271
:100B300000234FEA4C2041EADC5100F0A3FB194BA3
:100B40005B68C3F3014301335B00B0FBF3F008BD06
:100B5000144B5868C0F388104FEA401CBCEB000CE3
:100B60006EEB0E0E4FEA8E1343EA9C634FEA8C1134
:100B7000B1EB0C0163EB0E03DB0043EA5173C900D8
:100B800011EB000C43F10003990200234FEA8C2083
:100B900041EA9C5100F076FBD1E70348D7E70348D0
:100BA000D5E700BF0038024000127A000024F400AC
:100BB000002800F0FA8070B50D4604460368013B3A
:100BC0000E2B32D8072D36D87C4B1B6803F00F0351
:100BD000AB4208D2EBB2794A1370136803F00F03EB
:100BE000AB4240F0E480236813F0020F3ED013F0D4
:100BF000040F04D0724A936843F4E053936023686F
:100C000013F0080F04D06E4A936843F46043936076
:100C1000A36823B3C02B22D016D8A02B1FD010D886
:100C2000802B1CD0902B1AD014E040F25121654843
:100C300000F0F0FAC6E740F25221624800F0EAFA0A
:100C4000C2E7B02B0BD005E0E02B08D0F02B06D08C
:100C5000D02B04D040F275215A4800F0DBFA584AF4
:100C6000936823F0F003A1680B439360236813F0AB
:100C7000010F3CD06368032B25D86368012B28D073
:100C80009A1E012A2CD94E4A126812F0020F00F067
:100C900090804B498A6822F0030213438B60FFF770
:100CA000F7FB0646464B9B6803F00C036268B3EB08
:100CB000820F1CD0FFF7ECFB801B41F28833984277
:100CC000F0D9032064E04FF41F713E4800F0A2FA0F
:100CD000D3E73B4A126812F4003FDAD1012057E013
:100CE000374A126812F0007FD3D1012050E0334B15
:100CF0001B6803F00F03AB4207D9EAB22F4B1A70FF
:100D00001B6803F00F03AB4255D1236813F0040FA7
:100D100014D0E3685BB1B3F5805F08D0B3F5A05F92
:100D200005D0B3F5C05F02D0B3F5E05F31D1244AFE
:100D3000936823F4E053E1680B439360236813F056
:100D4000080F15D023695BB1B3F5805F08D0B3F508
:100D5000A05F05D0B3F5C05F02D0B3F5E05F1ED150
:100D6000174A936823F46043216943EAC1039360FF
:100D7000FFF7B0FE124B9B68C3F30313124AD35C18
:100D8000D840124B1860124B1868FFF741FB002047
:100D900070BD40F2BA210B4800F03CFAC7E740F2C0
:100DA000C121084800F036FADAE701207047012037
:100DB000EEE70120ECE70120EAE700BF003C02403B
:100DC00000380240641F00080C21000814000020B5
:100DD00008000020014B1868704700BF1400002075
:100DE000FEE7000008B503460C4A12685AB10B4AE8
:100DF0001068033323F003030344094A934206D8DF
:100E0000064A136008BD054A06491160EFE700F085
:100E1000EBFB0C2303604FF0FF30F3E7740000207E
:100E200000FC01202001002001230360014B0B6026
:100E3000704700BF0C0000202DE9F04385B0044648
:100E40000F4643563BBB042528462146ABBE05460C
:100E5000384605B0BDE8F08314F901CB03F1100268
:100E60006A4402F810CC0133AB42F5D310336B4423
:100E7000002203F8102C4FF00408E946404649468A
:100E8000ABBE8046761B002EE2D03546102E28BF22
:100E900010250023E8E70E46F5E708B5FFF7CCFF7D
:100EA00008BD00000FB400B583B004AB53F8042BA9
:100EB00001938021074800F089FB002804DC03B07F
:100EC0005DF804EB04B0704701460248FFF7E5FF08
:100ED000F5E700BF80000020F8B504460D46174630
:100EE0001E462748FFF7DEFF21682648FFF7DAFF96
:100EF00061682548FFF7D6FFA1682448FFF7D2FFB5
:100F0000E1682348FFF7CEFF21692248FFF7CAFFB7
:100F100061692148FFF7C6FFA1692048FFF7C2FFBA
:100F2000E1691F48FFF7BEFF1E48FFF7BBFF2946D8
:100F30001D48FFF7B7FF1D4CE16A1D48FFF7B2FFE0
:100F4000216B1C48FFF7AEFFE16B1B48FFF7AAFFC0
:100F500015F0800F0AD115F4004F0CD11748FFF798
:100F6000A1FF06991648FFF79DFFF8BD39461548C1
:100F7000FFF798FFEFE731461348FFF793FFEDE7E0
:100F8000941F0008A41F0008B41F0008C41F000815
:100F9000D41F0008E41F0008F41F00080420000804
:100FA00014200008242000083020000800ED00E094
:100FB0004020000850200008602000089020000811
:100FC00098200008702000088020000883691A8893
:100FD0008A4201D0002070470268033A012A01D9F1
:100FE00000207047023383610120704708B500F08C
:100FF00009F8024A024B9A6008BD00BF00000008D1
:1010000000ED00E0024B4FF000629A60704700BFB5
:1010100000ED00E0224B9B6803F00C03042B11D081
:10102000082B13D0002B37D11E4B1F4A1A601C4BC4
:101030009B68C3F303131D4AD15C1A4A1368CB4063
:1010400013607047174B1A4A1A60F0E7144B59683F
:101050005A6802F03F0211F4800F13D0144BB3FB17
:10106000F2F30F4A5268C2F3881202FB03F30C4AF0
:101070005268C2F3014201325200B3FBF2F3094A53
:101080001360D4E7084BB3FBF2F3054A5268C2F38E
:10109000881202FB03F3EAE7024B034A1A60C6E731
:1010A00000380240140000200024F4000C21000845
:1010B00000127A00014B1860704700BF0001002049
:1010C00002684900012303FA01FC42EA0C020260B3
:1010D000026819448B40134303607047074B5A68FA
:1010E00042F020025A609A6842F4806242F00302A1
:1010F0009A60DA6842F00702DA6070470020014027
:10110000044B102283F812231A6842F480221A60DA
:10111000704700BF00E100E0024A936843F080435B
:10112000936070470020014008B5054B1A6822F013
:1011300002021A60D86C034B1B6880B2984708BD46
:10114000002001400001002008B5044B1B689847AF
:10115000034A536943F00103536108BD04010020B1
:10116000003C014030B595B000240194224B1A6C2C
:1011700042F080521A641B6C03F080530193019B70
:1011800002941E4B1A6842F480421A601B6803F4F2
:1011900080430293029B012308934FF48033099309
:1011A0004FF480030F93082310934FF4A873119307
:1011B00002251295072313930E9508A8FFF712FA3C
:1011C0000F230393049505944FF4A05306934FF413
:1011D00080530793052103A8FFF7EAFCFFF7FAFD08
:1011E000074BA3FB00308009FFF7CEF90420FFF77F
:1011F000DFF915B030BD00BF00380240007000407C
:10120000D34D621008B5FFF729F9FFF7ABFFFFF7E1
:1012100001FF08BD08B50A4601460248FFF742FE35
:10122000FEE700BFDC200008014B1860704700BFDC
:101230000801002008B50B4B1A6B42F004021A6338
:101240005A6C42F480725A640748FFF733FF00215A
:101250000648FFF735FFFFF753FFFFF73FFFFFF7A4
:101260005BFFFEE700380240291200080008024038
:101270007047000008B5024B1B68984708BD00BFC7
:101280000C01002053B94AB9002908BF00281CBF2F
:101290004FF0FF314FF0FF3000F06AB9ADF1080CAC
:1012A0006DE904CE00F006F8DDF804E0DDE9022384
:1012B00004B070472DE9F047089D0E4604460F46DE
:1012C000002B4AD194468C45B2FA82F260D942B1E1
:1012D000C2F12003974020FA03F30CFA02FC1F43EB
:1012E00094404FEA1C4E1FFA8CF6B7FBFEF1230C1C
:1012F0000EFB117743EA074301FB06F098420AD937
:101300001CEB030301F1FF3780F01581984240F296
:101310001281023963441B1AA4B2B3FBFEF00EFB28
:10132000103344EA034400FB06F6A6420AD91CEB3C
:10133000040400F1FF3380F00081A64240F2FD80FA
:101340006444023840EA0140A41B00211DB1D4408E
:101350000023C5E90043BDE8F0878B4205D90DB1F4
:10136000C5E9000100210846F5E7B3FA83F1002939
:1013700046D1B34202D3824200F2F580841A66EB72
:10138000030201201746002DE5D0C5E90047E2E73A
:10139000002A40F09380A1EB0C034FEA1C471FFA90
:1013A0008CFE0121B3FBF7F607FB1630230C43EA52
:1013B00000430EFB06F0984208D91CEB030306F12C
:1013C000FF3802D2984200F2D08046461B1AA4B2DF
:1013D000B3FBF7F007FB103344EA03440EFB00FEB7
:1013E000A64508D91CEB040400F1FF3302D2A64540
:1013F00000F2B6801846A4EB0E0440EA0640A5E7CA
:10140000C1F120078B4022FA07FC4CEA030C06FAD4
:1014100001FE20FA07F426FA07F344EA0E0400FA64
:1014200001F84FEA1C404FEA1449B3FBF0FE1FFAE3
:101430008CF600FB1E3349EA03430EFB06F999457F
:1014400002FA01F20BD91CEB03030EF1FF3A80F014
:101450008580994540F28280AEF1020E6344A3EB91
:101460000909A4B2B9FBF0F300FB139944EA09445B
:1014700003FB06F6A64208D91CEB040403F1FF3077
:1014800068D2A64266D9023B644443EA0E40A41BDC
:10149000A0FB02E6B4427346B14652D34FD05DB1D1
:1014A000B8EB030264EB090404FA07F722FA01F32C
:1014B0001F43CC40C5E9007400214CE7C2F1200174
:1014C00020FA01F30CFA02FC26FA01F196403343AC
:1014D0004FEA1C471FFA8CFEB1FBF7F007FB101612
:1014E000190C41EA064100FB0EF68E4204FA02F4A2
:1014F00008D91CEB010100F1FF382DD28E422BD907
:1015000002386144891B9BB2B1FBF7F607FB161149
:1015100043EA014306FB0EF1994208D91CEB030391
:1015200006F1FF3814D2994212D9023E63445B1A85
:1015300046EA004136E73946EDE6184602E7F0454F
:10154000ADD2BEEB020366EB0C060138B146A6E74E
:101550004646ECE7034698E74046D3E7D6467EE7A3
:101560006444023847E708460DE7023E63442DE72E
:10157000704700BF30B51446002C9BB005461A4694
:1015800005DA8B2303604FF0FF301BB030BD4FF402
:101590000273ADF80C3014BF04F1FF3323460293FD
:1015A00005934FF6FF7300910491ADF80E30694634
:1015B0001E9B00F07BF8431CBCBF8B232B60002CD0
:1015C000E3D0009B00221A70DFE7000007B500930C
:1015D00013460A46014603480068FFF7CBFF03B0F5
:1015E0005DF804FB18000020014B1868704700BF2D
:1015F000180000202DE9F0478E681F46BE420B6898
:1016000082460C4690462DD8B1F90C2012F4906F0A
:1016100026D06569096905EB4505A3EB010905EBD2
:10162000D5757B1C4B446D109D4238BF1D4653053C
:1016300027D5294600F058F9064660B321694A4685
:1016400000F016FCA38923F4906343F08003A38188
:10165000266165614E44A5EB09052660A5603E46FE
:10166000BE4200D93E4620683246414600F082FB29
:10167000A3689B1BA3602368334423600020BDE85C
:10168000F0872A4600F048FB06460028E0D1216991
:10169000504600F0FBFB0C23CAF80030A38943F04E
:1016A0004003A3814FF0FF30E9E700002DE9F04F40
:1016B00098468B891B069DB007460D46144610D5EB
:1016C0000B6973B9402100F00FF92860286130B927
:1016D0000C233B604FF0FF301DB0BDE8F08F40237E
:1016E0006B610023099320238DF82930CDF80C80FD
:1016F0003023DFF89C818DF82A304FF00109234612
:101700009A4613F8012B0AB1252AF9D1BAEB040B3A
:101710000BD05B46224629463846FFF76BFF013067
:1017200000F0A780099A5A4409929AF80030002BD9
:1017300000F09F8000234FF0FF32CDE905230AF12E
:10174000010A049307938DF853301A9354460522E7
:1017500014F8011B4E4800F03BFB049AD8B9D006A0
:1017600044BF20238DF85330110744BF2B238DF83D
:1017700053309AF800302A2B15D0079A544600208F
:101780004FF00A0C214611F8013B303B092B4BD995
:10179000B0B1079214E0A0EB080309FA03F3134376
:1017A0000493A246D2E7039B191D1B680391002BEB
:1017B000BBBF5B4242F0020207930793B8BF04929B
:1017C00023782E2B0AD163782A2B32D1039B1A1D42
:1017D0001B68039243EAE37302340593DFF8B4A075
:1017E00021780322504600F0F3FA38B1049BA0EBB5
:1017F0000A004022824013430134049314F8011B71
:1018000025488DF82810062200F0E2FA002836D08C
:10181000224B1BBB039B073323F0070308330393BF
:10182000099B334409936AE70CFB02320C46012002
:10183000A8E700230134059319464FF00A0C20460F
:1018400010F8012B303A092A03D9002BC6D0059194
:10185000C4E70CFB012104460123F0E703AB00932E
:101860002A460F4B04A93846AFF30080421C0646B7
:10187000D6D1AB895B063FF52DAF09982CE703ABBA
:1018800000932A46064B04A9384600F01BF9EDE701
:101890001C21000822210008262100080000000069
:1018A000F515000870B50F4E0C463168054611B9A4
:1018B00000F07AFA30602146284600F075FA431CA1
:1018C00003D14FF0FF34204670BDC41C24F0030444
:1018D000A042F8D0211A284600F066FA0130F2D171
:1018E000EFE700BF100100202DE9F843CD1C25F0E3
:1018F000030508350C2D38BF0C25002D064601DBED
:10190000A94204D90C2333600020BDE8F883DFF836
:10191000D48000F0F5F9D8F800301C4644BB2946C5
:101920003046FFF7BFFF431C044658D1D8F80040AB
:101930002746002F43D1002C4BD023683946304630
:1019400004EB030900F030FA814542D121686D1A99
:1019500029463046FFF7A6FF01303AD023682B44D2
:101960002360D8F800305A6862BBC8F800700FE0F6
:101970002268521B20D40B2A17D96119A342256073
:1019800018BF5960636808BFC8F8001062514B6007
:10199000304600F0BBF904F10B00231D20F00700D6
:1019A000C21A1CBF1B1AA350AFE76268A3420CBF48
:1019B000C8F800205A60EBE723466468AEE73C466F
:1019C0007F68B6E71A465B68A342FBD100235360E9
:1019D000DEE70C233360304600F098F994E70560A9
:1019E000D6E700BF140100202DE9F04716469846BF
:1019F0008A680B69DDF820909342B8BF13463360C4
:101A000091F8432007460C460AB10133336023683E
:101A1000990642BF336802333360256815F0060526
:101A200006D104F1190AE36832689B1AAB4226DC3E
:101A300094F843302268003B18BF012392062BD450
:101A400004F1430241463846C84701301ED023689E
:101A5000226903F00603042B02BFE5683368ED1A20
:101A6000A3680CBF25EAE57500259342C4BF9B1A05
:101A7000ED1800261A34B5421AD1002008E00123DF
:101A8000524641463846C847013003D14FF0FF3037
:101A9000BDE8F0870135C6E7E1185A1C302081F80F
:101AA0004300224494F8451082F843100233C7E7FC
:101AB0000123224641463846C8470130E6D0013668
:101AC000D9E700002DE9FF470F7E0C9E782F914645
:101AD00080460C469A4601F1430207D8622F0AD885
:101AE000002F00F0D180582F00F0B88004F142069A
:101AF00084F842703AE0A7F16303152BF6D801A1F0
:101B000051F823F05D1B0008711B0008ED1A000856
:101B1000ED1A0008ED1A0008ED1A0008711B000804
:101B2000ED1A0008ED1A0008ED1A0008ED1A000879
:101B30006F1C00089B1B0008291C0008ED1A0008F8
:101B4000ED1A0008911C0008ED1A00089B1B000804
:101B5000ED1A0008ED1A0008311C000833681A1D40
:101B60001B68326004F1420684F8423001239CE095
:101B700033682068191D3160060601D51D6803E031
:101B80004506FBD5B3F90050002D03DA2D236D4235
:101B900084F8433058480A2311E021683368080666
:101BA00053F8045B02D4490648BFADB26F2F5248C8
:101BB000336014BF0A230823002184F843106668A9
:101BC000A660002E05DB21682E4321F00401216070
:101BD0004BD01646B5FBF3F103FB1157C75D06F872
:101BE000017D2F46BB420D46F4D9082B0BD123684B
:101BF000DF0708D5236961689942DEBF302306F804
:101C0000013C06F1FF36921B2261CDF800A04B4645
:101C100003AA21464046FFF7E7FE01304AD14FF0C4
:101C2000FF3004B0BDE8F087236843F02003236051
:101C30003248782784F84570236831681F0651F8C8
:101C4000045B02D45F0648BFADB23160D90744BF20
:101C500043F0200323601DB11023ADE72648E9E7D8
:101C6000236823F020032360F6E71646BDE73368B8
:101C700025686169181D30602E061B6801D5196042
:101C800002E06806FBD51980002323611646BCE7F5
:101C900033681A1D32601E6862680021304600F009
:101CA00097F808B1801B606063682361002384F8A3
:101CB0004330AAE72369324649464046D0470130BF
:101CC000ADD023689B0713D4E068039B9842B8BF4C
:101CD0001846A6E70123324649464046D047013020
:101CE0009DD00135E36803995B1AAB42F2DCEBE768
:101CF000002504F11906F5E72D2100083E21000812
:101D0000014800F061B800BF18010020014800F050
:101D10005CB800BF180100202DE9F04107461446C9
:101D20000D4621B9BDE8F0411146FFF7DDBD2AB9E6
:101D300000F0ACF825462846BDE8F08100F0F0F848
:101D40008442064602D8B4EB500FF4D821463846F8
:101D5000FFF7CAFD804608B94546ECE7B442224683
:101D6000294628BF324600F083F82946384600F05D
:101D70008DF8F1E7884210B501EB020402D98442E4
:101D8000234607D8431EA14208D011F8012B03F8BF
:101D9000012FF8E7024401468A4200D110BD13F832
:101DA000014D02F8014DF7E738B5064D0023044612
:101DB00008462B60FFF716F8431C02D12B6803B1CD
:101DC000236038BD7C000020704770470000000091
:101DD00001F0FF01102A2BDB10F0070F08D010F8DC
:101DE000013B013A8B422DD010F0070F42B3F6D1E0
:101DF000F0B441EA012141EA014122F007047FF0F9
:101E000000070023F0E80256083C85EA010586EA4F
:101E1000010685FA47F5A3FA87F586FA47F6A5FA8B
:101E200087F68EB9EED1F0BC01F0FF0102F0070297
:101E300032B110F8013B013A83EA010313B1F8D142
:101E40000020704701387047002D06BF3546033823
:101E5000073815F0010F07D1013015F4807F02BF5C
:101E6000013015F4C03F0130F0BC0138704700BFAD
:101E70000A44914200F1FF3300D1704710B511F8C8
:101E8000014B03F8014F9142F9D110BD38B5054619
:101E9000002941D051F8043C0C1F002BB8BFE418B6
:101EA000FFF72EFF1D4A136833B96360146028469C
:101EB000BDE83840FFF72ABFA34208D9206821189F
:101EC0008B4201BF19685B6809182160EDE71A466B
:101ED0005B680BB1A342FAD911685018A0420BD12C
:101EE00020680144501883421160E0D118685B6893
:101EF000536008441060DAE702D90C232B60D6E760
:101F0000206821188B4204BF19685B68636004BFB6
:101F1000091821605460CAE738BD00BF14010020D1
:101F200051F8043C181F002BBCBF0B58C018704759
:101F30002E2E2F73797374656D2F7372632F7374E4
:101F40006D333266342D68616C2F73746D33326675
:101F50003478785F68616C5F636F727465782E6344
:101F6000000000002E2E2F73797374656D2F73722D
:101F7000632F73746D333266342D68616C2F737404
:101F80006D3332663478785F68616C5F7263632E9C
:101F900063000000537461636B206672616D653A83
:101FA0000A000000205230203D2020253038580AF9
:101FB00000000000205231203D2020253038580AF2
:101FC00000000000205232203D2020253038580AE1
:101FD00000000000205233203D2020253038580AD0
:101FE0000000000020523132203D20253038580AB0
:101FF00000000000204C52203D2020253038580A97
:1020000000000000205043203D2020253038580A91
:102010000000000020505352203D20253038580A3F
:10202000000000004653522F4641523A0A00000079
:102030002043465352203D2020253038580A0000C6
:102040002048465352203D2020253038580A0000B1
:102050002044465352203D2020253038580A0000A5
:102060002041465352203D2020253038580A000098
:10207000204D4D464152203D20253038580A000061
:102080002042464152203D2020253038580A000089
:102090004D6973630A000000204C522F4558435F7E
:1020A00052455455524E3D20253038580A00000004
:1020B0005B486172644661756C745D0A00000000E3
:1020C0005B4275734661756C745D0A005B557361A4
:1020D00067654661756C745D0A00000057726F6E2B
:1020E0006720706172616D65746572732076616CD2
:1020F00075653A2066696C65202573206F6E206CCB
:10210000696E652025640D0A0000000000000000D3
:10211000000000000102030406070809232D302BEC
:102120002000686C4C0065666745464700303132D8
:10213000333435363738394142434445460030312F
:10214000323334353637383961626364656600008E
:102150001000000000000000017A5200027C0E0115
:102160001B0C0D0010000000180000000000000013
:10217000100000000000000010000000000000003F
:10218000017A5200027C0E011B0C0D003800000089
:10219000180000003CFCFFFF9E00000000510E10E4
:1021A00084048503860287015BC7C6C5C40E004C44
:1021B0000A420B0A420B0E10840485038602870133
:0821C00051C7C6C5C40E0000A2
:0821C800ECF0FF7F01000000B4
:1021D0007856341201FFFFFF100000007800002045
:1021E000000000000024F4001C000020000000009B
:1021F0000000000068000000D000000000000000A7
:1022000000000000000000000000000000000000CE
:1022100000000000000000000000000000000000BE
:1022200000000000000000000000000000000000AE
:0C2230000000000000000000325476980E
:040000050800018965
:00000001FF
